{
  "contractName": "Ballot",
  "abi": [
    {
      "inputs": [
        {
          "internalType": "uint256",
          "name": "proposalsCount",
          "type": "uint256"
        }
      ],
      "payable": false,
      "stateMutability": "nonpayable",
      "type": "constructor"
    },
    {
      "constant": false,
      "inputs": [
        {
          "internalType": "uint256",
          "name": "proposal",
          "type": "uint256"
        }
      ],
      "name": "vote",
      "outputs": [],
      "payable": false,
      "stateMutability": "nonpayable",
      "type": "function"
    },
    {
      "constant": true,
      "inputs": [],
      "name": "winningProposal",
      "outputs": [
        {
          "internalType": "uint256",
          "name": "_winningProposal",
          "type": "uint256"
        }
      ],
      "payable": false,
      "stateMutability": "view",
      "type": "function"
    }
  ],
  "bytecode": "0x608060405234801561001057600080fd5b506040516102ba3803806102ba8339818101604052602081101561003357600080fd5b8101908080519060200190929190505050806000816100529190610059565b50506100aa565b8154818355818111156100805781836000526020600020918201910161007f9190610085565b5b505050565b6100a791905b808211156100a357600081600090555060010161008b565b5090565b90565b610201806100b96000396000f3fe608060405234801561001057600080fd5b50600436106100365760003560e01c80630121b93f1461003b578063609ff1bd14610069575b600080fd5b6100676004803603602081101561005157600080fd5b8101908080359060200190929190505050610087565b005b610071610175565b6040518082815260200191505060405180910390f35b6000600160003373ffffffffffffffffffffffffffffffffffffffff1673ffffffffffffffffffffffffffffffffffffffff16815260200190815260200160002060009054906101000a900460ff169050801580156100ea575060008054905082105b6100f357600080fd5b60018060003373ffffffffffffffffffffffffffffffffffffffff1673ffffffffffffffffffffffffffffffffffffffff16815260200190815260200160002060006101000a81548160ff0219169083151502179055506000828154811061015757fe5b90600052602060002001600081548092919060010191905055505050565b6000806000905060008090505b6000805490508110156101c757600080828154811061019d57fe5b90600052602060002001549050828111156101b9578092508193505b508080600101915050610182565b50509056fea265627a7a72315820cd251967191dfb206e3800bd8ada2cea2a13f71c3526f8d697f123cdb3e7789964736f6c63430005100032",
  "source": "// SPDX-License-Identifier: MIT\npragma solidity >=0.4.22 <0.8.0;\n\ncontract Ballot{\n    uint[] proposals;\n    mapping(address => bool) voters;\n    \n    constructor(uint proposalsCount) public{\n        proposals.length = proposalsCount;\n    }\n    \n    function vote(uint proposal) public {\n        bool hasVoted = voters[msg.sender];\n        require(!hasVoted && proposal < proposals.length);\n        voters[msg.sender] = true;\n        proposals[proposal]++;\n    }\n    \n    function winningProposal() public view returns(uint _winningProposal){\n        uint winningVoteCount = 0;\n        for(uint prop = 0; prop < proposals.length; prop++){\n            uint voteCount = proposals[prop];\n            if(voteCount > winningVoteCount){\n                winningVoteCount = voteCount;\n                _winningProposal = prop;\n            }\n        }\n    }\n}",
  "sourcePath": "/home/anton/truffle/contracts/newContract.sol",
  "compiler": {
    "name": "solc",
    "version": "0.5.16+commit.9c3226ce.Emscripten.clang"
  },
  "schemaVersion": "3.3.2",
  "updatedAt": "2020-12-06T13:01:37.320Z",
  "networkType": "ethereum",
  "devdoc": {
    "methods": {}
  },
  "userdoc": {
    "methods": {}
  }
}